{
  "_format": "hh-sol-artifact-1",
  "contractName": "CuniverseHub",
  "sourceName": "contracts/CuniverseHub.sol",
  "abi": [
    {
      "inputs": [
        {
          "internalType": "address payable",
          "name": "receiver_",
          "type": "address"
        },
        {
          "internalType": "uint96",
          "name": "feeFraction_",
          "type": "uint96"
        }
      ],
      "stateMutability": "nonpayable",
      "type": "constructor"
    },
    {
      "anonymous": false,
      "inputs": [
        {
          "indexed": true,
          "internalType": "address",
          "name": "previousOwner",
          "type": "address"
        },
        {
          "indexed": true,
          "internalType": "address",
          "name": "newOwner",
          "type": "address"
        }
      ],
      "name": "OwnershipTransferred",
      "type": "event"
    },
    {
      "anonymous": false,
      "inputs": [
        {
          "indexed": false,
          "internalType": "address",
          "name": "from",
          "type": "address"
        },
        {
          "indexed": false,
          "internalType": "address",
          "name": "to",
          "type": "address"
        },
        {
          "indexed": false,
          "internalType": "uint256",
          "name": "tokenId",
          "type": "uint256"
        }
      ],
      "name": "Transfer",
      "type": "event"
    },
    {
      "stateMutability": "payable",
      "type": "fallback"
    },
    {
      "inputs": [
        {
          "internalType": "bytes32",
          "name": "_signiture",
          "type": "bytes32"
        },
        {
          "internalType": "address",
          "name": "_owner",
          "type": "address"
        },
        {
          "internalType": "address",
          "name": "_contractAddress",
          "type": "address"
        },
        {
          "internalType": "uint256",
          "name": "_tokenId",
          "type": "uint256"
        },
        {
          "internalType": "uint256",
          "name": "_price",
          "type": "uint256"
        },
        {
          "internalType": "uint256",
          "name": "_startTime",
          "type": "uint256"
        },
        {
          "internalType": "uint256",
          "name": "_endTime",
          "type": "uint256"
        }
      ],
      "name": "_verifySignature",
      "outputs": [
        {
          "internalType": "bool",
          "name": "",
          "type": "bool"
        }
      ],
      "stateMutability": "pure",
      "type": "function"
    },
    {
      "inputs": [],
      "name": "owner",
      "outputs": [
        {
          "internalType": "address",
          "name": "",
          "type": "address"
        }
      ],
      "stateMutability": "view",
      "type": "function"
    },
    {
      "inputs": [
        {
          "internalType": "bytes32",
          "name": "_signiture",
          "type": "bytes32"
        },
        {
          "internalType": "address",
          "name": "_owner",
          "type": "address"
        },
        {
          "internalType": "address",
          "name": "_contractAddress",
          "type": "address"
        },
        {
          "internalType": "uint256",
          "name": "_tokenId",
          "type": "uint256"
        },
        {
          "internalType": "uint256",
          "name": "_price",
          "type": "uint256"
        },
        {
          "internalType": "uint256",
          "name": "_startTime",
          "type": "uint256"
        },
        {
          "internalType": "uint256",
          "name": "_endTime",
          "type": "uint256"
        }
      ],
      "name": "proceedOrder",
      "outputs": [],
      "stateMutability": "payable",
      "type": "function"
    },
    {
      "inputs": [],
      "name": "renounceOwnership",
      "outputs": [],
      "stateMutability": "nonpayable",
      "type": "function"
    },
    {
      "inputs": [
        {
          "internalType": "address payable",
          "name": "_receiver",
          "type": "address"
        },
        {
          "internalType": "uint96",
          "name": "_feeFraction",
          "type": "uint96"
        }
      ],
      "name": "setFeeInfo",
      "outputs": [],
      "stateMutability": "nonpayable",
      "type": "function"
    },
    {
      "inputs": [
        {
          "internalType": "address",
          "name": "newOwner",
          "type": "address"
        }
      ],
      "name": "transferOwnership",
      "outputs": [],
      "stateMutability": "nonpayable",
      "type": "function"
    },
    {
      "stateMutability": "payable",
      "type": "receive"
    }
  ],
  "bytecode": "0x60806040523480156200001157600080fd5b506040516200108238038062001082833981016040819052620000349162000161565b6200003f3362000053565b6200004b8282620000a3565b5050620001b6565b600080546001600160a01b038381166001600160a01b0319831681178455604051919092169283917f8be0079c531659141344cd1fd0a4f28419497f9722a3daafe3b4186f6b6457e09190a35050565b620000ad620000bd565b620000b982826200011e565b5050565b6000546001600160a01b031633146200011c5760405162461bcd60e51b815260206004820181905260248201527f4f776e61626c653a2063616c6c6572206973206e6f7420746865206f776e6572604482015260640160405180910390fd5b565b62000128620000bd565b604080518082019091526001600160a01b039092168083526001600160601b039091166020909201829052600160a01b90910217600155565b600080604083850312156200017557600080fd5b82516001600160a01b03811681146200018d57600080fd5b60208401519092506001600160601b0381168114620001ab57600080fd5b809150509250929050565b610ebc80620001c66000396000f3fe6080604052600436106100635760003560e01c8063a85cbd6911610040578063a85cbd69146100ce578063f2fde38b146100fe578063f834f4c51461011e57005b8063715018a61461006c5780638da5cb5b1461008157806399b2b20a146100ae57005b3661006a57005b005b34801561007857600080fd5b5061006a610131565b34801561008d57600080fd5b506000546040516001600160a01b0390911681526020015b60405180910390f35b3480156100ba57600080fd5b5061006a6100c9366004610ceb565b610145565b3480156100da57600080fd5b506100ee6100e9366004610d35565b61015b565b60405190151581526020016100a5565b34801561010a57600080fd5b5061006a610119366004610d9a565b610245565b61006a61012c366004610d35565b6102d5565b610139610710565b610143600061076a565b565b61014d610710565b61015782826107d2565b5050565b60006001600160a01b0386166101de5760405162461bcd60e51b815260206004820152603360248201527f43756e6976657273654875623a20736d61727420636f6e74726163742061646460448201527f72657373206e6f7420746f206265207a65726f0000000000000000000000000060648201526084015b60405180910390fd5b50604080516bffffffffffffffffffffffff19606098891b81166020808401919091529790981b909716603488015260488701949094526068860192909252608885015260a8808501919091528151808503909101815260c8909301905281519101201490565b61024d610710565b6001600160a01b0381166102c95760405162461bcd60e51b815260206004820152602660248201527f4f776e61626c653a206e6577206f776e657220697320746865207a65726f206160448201527f646472657373000000000000000000000000000000000000000000000000000060648201526084016101d5565b6102d28161076a565b50565b6102e48787878787878761015b565b6103305760405162461bcd60e51b815260206004820152601f60248201527f43756e6976657273654875623a20696e7661696c64207369676e61747572650060448201526064016101d5565b8234146103a55760405162461bcd60e51b815260206004820152602560248201527f43756e6976657273654875623a206d73672e76616c75652063616d6520696e2060448201527f77726f6e6700000000000000000000000000000000000000000000000000000060648201526084016101d5565b333b1561041a5760405162461bcd60e51b815260206004820152602e60248201527f43756e6976657273654875623a206d73672e73656e646572206973206e6f742060448201527f77616c6c6574206164647265737300000000000000000000000000000000000060648201526084016101d5565b61042382421190565b6104955760405162461bcd60e51b815260206004820152602960248201527f43756e6976657273654875623a206974206973206e6f742074696d6520666f7260448201527f2073616c6520796574000000000000000000000000000000000000000000000060648201526084016101d5565b61049e81421090565b6105105760405162461bcd60e51b815260206004820152602160248201527f43756e6976657273654875623a20746869732073616c652068617320656e646560448201527f640000000000000000000000000000000000000000000000000000000000000060648201526084016101d5565b61051985610818565b61058a5760405162461bcd60e51b8152602060048201526024808201527f43756e6976657273654875623a206e6f7420737570706f7274656420636f6e7460448201527f726163740000000000000000000000000000000000000000000000000000000060648201526084016101d5565b61059586868661084a565b6106075760405162461bcd60e51b815260206004820152602c60248201527f43756e6976657273654875623a206f776e657220646f6573206e6f742068617660448201527f65207468697320746f6b656e000000000000000000000000000000000000000060648201526084016101d5565b61061186866108ef565b6106835760405162461bcd60e51b815260206004820152602660248201527f43756e6976657273654875623a206e6f20617070726f76616c20666f7220747260448201527f616e73666572000000000000000000000000000000000000000000000000000060648201526084016101d5565b600061068e84610985565b905060008061069e8888886109b8565b9150915060006106af878584610a82565b6001549091506106c8906001600160a01b031685610a97565b6106d28a82610a97565b6001600160a01b038316158015906106e957508115155b156106f8576106f88383610a97565b6107038a8a8a610ad2565b5050505050505050505050565b6000546001600160a01b031633146101435760405162461bcd60e51b815260206004820181905260248201527f4f776e61626c653a2063616c6c6572206973206e6f7420746865206f776e657260448201526064016101d5565b600080546001600160a01b038381167fffffffffffffffffffffffff0000000000000000000000000000000000000000831681178455604051919092169283917f8be0079c531659141344cd1fd0a4f28419497f9722a3daafe3b4186f6b6457e09190a35050565b6107da610710565b604080518082019091526001600160a01b039092168083526bffffffffffffffffffffffff9091166020909201829052600160a01b90910217600155565b6000610844827f80ac58cd00000000000000000000000000000000000000000000000000000000610ba6565b92915050565b6040517f6352211e0000000000000000000000000000000000000000000000000000000081526004810182905260009083906001600160a01b03821690636352211e90602401602060405180830381865afa1580156108ad573d6000803e3d6000fd5b505050506040513d601f19601f820116820180604052508101906108d19190610db7565b6001600160a01b0316856001600160a01b0316149150509392505050565b6040517fe985e9c50000000000000000000000000000000000000000000000000000000081526001600160a01b038381166004830152306024830152600091839182169063e985e9c590604401602060405180830381865afa158015610959573d6000803e3d6000fd5b505050506040513d601f19601f8201168201806040525081019061097d9190610dd4565b949350505050565b600154600090612710906109ae90600160a01b90046bffffffffffffffffffffffff1684610e0c565b6108449190610e23565b60008060006109c686610bc9565b90508015610a715760006109e18763152a902d60e11b610ba6565b90508015610a635760405163152a902d60e11b815260048101879052602481018690526001600160a01b03881690632a55205a906044016040805180830381865afa158015610a34573d6000803e3d6000fd5b505050506040513d601f19601f82011682018060405250810190610a589190610e45565b935093505050610a7a565b600080935093505050610a7a565b60008092509250505b935093915050565b600061097d610a918585610c14565b83610c14565b6040516001600160a01b0383169082156108fc029083906000818181858888f19350505050158015610acd573d6000803e3d6000fd5b505050565b6040517f42842e0e0000000000000000000000000000000000000000000000000000000081526001600160a01b038481166004830152336024830152604482018390528391908216906342842e0e90606401600060405180830381600087803b158015610b3e57600080fd5b505af1158015610b52573d6000803e3d6000fd5b5050604080516001600160a01b03881681523360208201529081018590527fddf252ad1be2c89b69c2b068fc378daa952ba7f163c4a11628f55a4df523b3ef9250606001905060405180910390a150505050565b6000610bb183610bc9565b8015610bc25750610bc28383610c20565b9392505050565b6000610bdc826301ffc9a760e01b610c20565b80156108445750610c0d827fffffffff00000000000000000000000000000000000000000000000000000000610c20565b1592915050565b6000610bc28284610e73565b604080517fffffffff000000000000000000000000000000000000000000000000000000008316602480830191909152825180830390910181526044909101909152602080820180517bffffffffffffffffffffffffffffffffffffffffffffffffffffffff166301ffc9a760e01b178152825160009392849283928392918391908a617530fa92503d91506000519050828015610cbf575060208210155b8015610ccb5750600081115b979650505050505050565b6001600160a01b03811681146102d257600080fd5b60008060408385031215610cfe57600080fd5b8235610d0981610cd6565b915060208301356bffffffffffffffffffffffff81168114610d2a57600080fd5b809150509250929050565b600080600080600080600060e0888a031215610d5057600080fd5b873596506020880135610d6281610cd6565b95506040880135610d7281610cd6565b969995985095966060810135965060808101359560a0820135955060c0909101359350915050565b600060208284031215610dac57600080fd5b8135610bc281610cd6565b600060208284031215610dc957600080fd5b8151610bc281610cd6565b600060208284031215610de657600080fd5b81518015158114610bc257600080fd5b634e487b7160e01b600052601160045260246000fd5b808202811582820484141761084457610844610df6565b600082610e4057634e487b7160e01b600052601260045260246000fd5b500490565b60008060408385031215610e5857600080fd5b8251610e6381610cd6565b6020939093015192949293505050565b8181038181111561084457610844610df656fea26469706673582212203f4e0ee3dec6a7507185a01832c7ea04703c4eb803dfb58d20b8291e1316096d64736f6c63430008130033",
  "linkReferences": {},
  "deployedLinkReferences": {}
}