{
  "_format": "hh-sol-artifact-1",
  "contractName": "CuniverseHub",
  "sourceName": "contracts/CuniverseHub.sol",
  "abi": [
    {
      "inputs": [
        {
          "internalType": "address payable",
          "name": "receiver_",
          "type": "address"
        },
        {
          "internalType": "uint96",
          "name": "feeFraction_",
          "type": "uint96"
        }
      ],
      "stateMutability": "nonpayable",
      "type": "constructor"
    },
    {
      "anonymous": false,
      "inputs": [
        {
          "indexed": true,
          "internalType": "address",
          "name": "previousOwner",
          "type": "address"
        },
        {
          "indexed": true,
          "internalType": "address",
          "name": "newOwner",
          "type": "address"
        }
      ],
      "name": "OwnershipTransferred",
      "type": "event"
    },
    {
      "anonymous": false,
      "inputs": [
        {
          "indexed": false,
          "internalType": "address",
          "name": "from",
          "type": "address"
        },
        {
          "indexed": false,
          "internalType": "address",
          "name": "to",
          "type": "address"
        },
        {
          "indexed": false,
          "internalType": "uint256",
          "name": "tokenId",
          "type": "uint256"
        }
      ],
      "name": "Transfer",
      "type": "event"
    },
    {
      "stateMutability": "payable",
      "type": "fallback"
    },
    {
      "inputs": [],
      "name": "DOMAIN_SEPARATOR",
      "outputs": [
        {
          "internalType": "bytes32",
          "name": "",
          "type": "bytes32"
        }
      ],
      "stateMutability": "view",
      "type": "function"
    },
    {
      "inputs": [
        {
          "components": [
            {
              "internalType": "address",
              "name": "owner",
              "type": "address"
            },
            {
              "internalType": "address",
              "name": "contractAddress",
              "type": "address"
            },
            {
              "internalType": "uint256",
              "name": "tokenId",
              "type": "uint256"
            },
            {
              "internalType": "uint256",
              "name": "price",
              "type": "uint256"
            },
            {
              "internalType": "uint256",
              "name": "startTime",
              "type": "uint256"
            },
            {
              "internalType": "uint256",
              "name": "endTime",
              "type": "uint256"
            }
          ],
          "internalType": "struct ICuniverseHub.Order",
          "name": "_order",
          "type": "tuple"
        }
      ],
      "name": "_hashOrder",
      "outputs": [
        {
          "internalType": "bytes32",
          "name": "",
          "type": "bytes32"
        }
      ],
      "stateMutability": "view",
      "type": "function"
    },
    {
      "inputs": [
        {
          "internalType": "address",
          "name": "_signer",
          "type": "address"
        },
        {
          "components": [
            {
              "internalType": "address",
              "name": "owner",
              "type": "address"
            },
            {
              "internalType": "address",
              "name": "contractAddress",
              "type": "address"
            },
            {
              "internalType": "uint256",
              "name": "tokenId",
              "type": "uint256"
            },
            {
              "internalType": "uint256",
              "name": "price",
              "type": "uint256"
            },
            {
              "internalType": "uint256",
              "name": "startTime",
              "type": "uint256"
            },
            {
              "internalType": "uint256",
              "name": "endTime",
              "type": "uint256"
            }
          ],
          "internalType": "struct ICuniverseHub.Order",
          "name": "_order",
          "type": "tuple"
        },
        {
          "internalType": "uint8",
          "name": "v",
          "type": "uint8"
        },
        {
          "internalType": "bytes32",
          "name": "r",
          "type": "bytes32"
        },
        {
          "internalType": "bytes32",
          "name": "s",
          "type": "bytes32"
        }
      ],
      "name": "_verifyOrder",
      "outputs": [
        {
          "internalType": "bool",
          "name": "",
          "type": "bool"
        }
      ],
      "stateMutability": "view",
      "type": "function"
    },
    {
      "inputs": [],
      "name": "owner",
      "outputs": [
        {
          "internalType": "address",
          "name": "",
          "type": "address"
        }
      ],
      "stateMutability": "view",
      "type": "function"
    },
    {
      "inputs": [
        {
          "internalType": "address",
          "name": "_owner",
          "type": "address"
        },
        {
          "internalType": "address",
          "name": "_contractAddress",
          "type": "address"
        },
        {
          "internalType": "uint256",
          "name": "_tokenId",
          "type": "uint256"
        },
        {
          "internalType": "uint256",
          "name": "_price",
          "type": "uint256"
        },
        {
          "internalType": "uint256",
          "name": "_startTime",
          "type": "uint256"
        },
        {
          "internalType": "uint256",
          "name": "_endTime",
          "type": "uint256"
        },
        {
          "internalType": "uint8",
          "name": "v",
          "type": "uint8"
        },
        {
          "internalType": "bytes32",
          "name": "r",
          "type": "bytes32"
        },
        {
          "internalType": "bytes32",
          "name": "s",
          "type": "bytes32"
        }
      ],
      "name": "proceedOrder",
      "outputs": [],
      "stateMutability": "payable",
      "type": "function"
    },
    {
      "inputs": [],
      "name": "renounceOwnership",
      "outputs": [],
      "stateMutability": "nonpayable",
      "type": "function"
    },
    {
      "inputs": [
        {
          "internalType": "address payable",
          "name": "_receiver",
          "type": "address"
        },
        {
          "internalType": "uint96",
          "name": "_feeFraction",
          "type": "uint96"
        }
      ],
      "name": "setFeeInfo",
      "outputs": [],
      "stateMutability": "nonpayable",
      "type": "function"
    },
    {
      "inputs": [
        {
          "internalType": "address",
          "name": "newOwner",
          "type": "address"
        }
      ],
      "name": "transferOwnership",
      "outputs": [],
      "stateMutability": "nonpayable",
      "type": "function"
    },
    {
      "stateMutability": "payable",
      "type": "receive"
    }
  ],
  "bytecode": "0x60806040523480156200001157600080fd5b506040516200143538038062001435833981016040819052620000349162000220565b6200003f336200012c565b6200004b82826200017c565b604080518082018252600981526843756e69766572736560b81b6020918201528151808301835260038152620312e360ec1b9082015281517f8b73c3c69bb8fe3d512ecc4cf759cc79239f7b179b0ffacaa9a75d522b39400f918101919091527f3e027d25cf0fbdfd07e02a056251a46f1416dedd9168f548988474c6b088542f918101919091527fe6bbd6277e1bf288eed5e8d1780f9a50b239e86b153736bceebccf4ea79d90b360608201524660808201523060a082015260c00160405160208183030381529060405280519060200120600381905550505062000275565b600080546001600160a01b038381166001600160a01b0319831681178455604051919092169283917f8be0079c531659141344cd1fd0a4f28419497f9722a3daafe3b4186f6b6457e09190a35050565b62000186620001bf565b604080518082019091526001600160a01b0383168082526001600160601b0383166020909201829052600160a01b909102176001555050565b6000546001600160a01b031633146200021e5760405162461bcd60e51b815260206004820181905260248201527f4f776e61626c653a2063616c6c6572206973206e6f7420746865206f776e6572604482015260640160405180910390fd5b565b600080604083850312156200023457600080fd5b82516001600160a01b03811681146200024c57600080fd5b60208401519092506001600160601b03811681146200026a57600080fd5b809150509250929050565b6111b080620002856000396000f3fe6080604052600436106100795760003560e01c80638da5cb5b1161004b5780638da5cb5b1461010357806399b2b20a1461012b578063afd744191461014b578063f2fde38b1461016b57005b80632f6252bd146100825780633644e515146100b7578063515729d2146100db578063715018a6146100ee57005b3661008057005b005b34801561008e57600080fd5b506100a261009d366004610f4b565b61018b565b60405190151581526020015b60405180910390f35b3480156100c357600080fd5b506100cd60035481565b6040519081526020016100ae565b6100806100e9366004610fa6565b61020f565b3480156100fa57600080fd5b50610080610711565b34801561010f57600080fd5b506000546040516001600160a01b0390911681526020016100ae565b34801561013757600080fd5b50610080610146366004611028565b610725565b34801561015757600080fd5b506100cd610166366004611072565b61076b565b34801561017757600080fd5b5061008061018636600461108e565b610871565b600060016101988661076b565b6040805160008152602081018083529290925260ff871690820152606081018590526080810184905260a0016020604051602081039080840390855afa1580156101e6573d6000803e3d6000fd5b505050602060405103516001600160a01b0316866001600160a01b031614905095945050505050565b60006040518060c001604052808b6001600160a01b031681526020018a6001600160a01b0316815260200189815260200188815260200187815260200186815250905061025f8a8286868661018b565b6102b05760405162461bcd60e51b815260206004820152601b60248201527f43756e6976657273654875623a20696e7661696c64206f72646572000000000060448201526064015b60405180910390fd5b8634146103255760405162461bcd60e51b815260206004820152602560248201527f43756e6976657273654875623a206d73672e76616c75652063616d6520696e2060448201527f77726f6e6700000000000000000000000000000000000000000000000000000060648201526084016102a7565b6001600160a01b038a1633036103a35760405162461bcd60e51b815260206004820152602560248201527f43756e6976657273654875623a2063616e206e6f7420627579206f776e65642060448201527f746f6b656e00000000000000000000000000000000000000000000000000000060648201526084016102a7565b333b156104185760405162461bcd60e51b815260206004820152602e60248201527f43756e6976657273654875623a206d73672e73656e646572206973206e6f742060448201527f77616c6c6574206164647265737300000000000000000000000000000000000060648201526084016102a7565b61042186421190565b6104935760405162461bcd60e51b815260206004820152602960248201527f43756e6976657273654875623a206974206973206e6f742074696d6520666f7260448201527f2073616c6520796574000000000000000000000000000000000000000000000060648201526084016102a7565b61049c85421090565b61050e5760405162461bcd60e51b815260206004820152602160248201527f43756e6976657273654875623a20746869732073616c652068617320656e646560448201527f640000000000000000000000000000000000000000000000000000000000000060648201526084016102a7565b61051789610901565b6105885760405162461bcd60e51b8152602060048201526024808201527f43756e6976657273654875623a206e6f7420737570706f7274656420636f6e7460448201527f726163740000000000000000000000000000000000000000000000000000000060648201526084016102a7565b6105938a8a8a610933565b6106055760405162461bcd60e51b815260206004820152602c60248201527f43756e6976657273654875623a206f776e657220646f6573206e6f742068617660448201527f65207468697320746f6b656e000000000000000000000000000000000000000060648201526084016102a7565b61060f8a8a6109d8565b6106815760405162461bcd60e51b815260206004820152602660248201527f43756e6976657273654875623a206e6f20617070726f76616c20666f7220747260448201527f616e73666572000000000000000000000000000000000000000000000000000060648201526084016102a7565b600061068c88610a6e565b905060008061069c8c8c8c610aa1565b9150915060006106ad8b8584610b6b565b6001549091506106c6906001600160a01b031685610b80565b6106d08e82610b80565b6001600160a01b038316158015906106e757508115155b156106f6576106f68383610b80565b6107018e8e8e610bbb565b5050505050505050505050505050565b610719610c8f565b6107236000610ce9565b565b61072d610c8f565b604080518082019091526001600160a01b0383168082526bffffffffffffffffffffffff83166020909201829052600160a01b909102176001555050565b60006003547f54f2a117adb2a57cdd5901f467a9bc873002098ad64c86110d9c894ae0de4b60836000015184602001518560400151866060015187608001518860a001516040516020016107fc97969594939291909687526001600160a01b0395861660208801529390941660408601526060850191909152608084015260a083019190915260c082015260e00190565b604051602081830303815290604052805190602001206040516020016108549291907f190100000000000000000000000000000000000000000000000000000000000081526002810192909252602282015260420190565b604051602081830303815290604052805190602001209050919050565b610879610c8f565b6001600160a01b0381166108f55760405162461bcd60e51b815260206004820152602660248201527f4f776e61626c653a206e6577206f776e657220697320746865207a65726f206160448201527f646472657373000000000000000000000000000000000000000000000000000060648201526084016102a7565b6108fe81610ce9565b50565b600061092d827f80ac58cd00000000000000000000000000000000000000000000000000000000610d51565b92915050565b6040517f6352211e0000000000000000000000000000000000000000000000000000000081526004810182905260009083906001600160a01b03821690636352211e90602401602060405180830381865afa158015610996573d6000803e3d6000fd5b505050506040513d601f19601f820116820180604052508101906109ba91906110ab565b6001600160a01b0316856001600160a01b0316149150509392505050565b6040517fe985e9c50000000000000000000000000000000000000000000000000000000081526001600160a01b038381166004830152306024830152600091839182169063e985e9c590604401602060405180830381865afa158015610a42573d6000803e3d6000fd5b505050506040513d601f19601f82011682018060405250810190610a6691906110c8565b949350505050565b60015460009061271090610a9790600160a01b90046bffffffffffffffffffffffff1684611100565b61092d9190611117565b6000806000610aaf86610d74565b90508015610b5a576000610aca8763152a902d60e11b610d51565b90508015610b4c5760405163152a902d60e11b815260048101879052602481018690526001600160a01b03881690632a55205a906044016040805180830381865afa158015610b1d573d6000803e3d6000fd5b505050506040513d601f19601f82011682018060405250810190610b419190611139565b935093505050610b63565b600080935093505050610b63565b60008092509250505b935093915050565b6000610a66610b7a8585610dbf565b83610dbf565b6040516001600160a01b0383169082156108fc029083906000818181858888f19350505050158015610bb6573d6000803e3d6000fd5b505050565b6040517f42842e0e0000000000000000000000000000000000000000000000000000000081526001600160a01b038481166004830152336024830152604482018390528391908216906342842e0e90606401600060405180830381600087803b158015610c2757600080fd5b505af1158015610c3b573d6000803e3d6000fd5b5050604080516001600160a01b03881681523360208201529081018590527fddf252ad1be2c89b69c2b068fc378daa952ba7f163c4a11628f55a4df523b3ef9250606001905060405180910390a150505050565b6000546001600160a01b031633146107235760405162461bcd60e51b815260206004820181905260248201527f4f776e61626c653a2063616c6c6572206973206e6f7420746865206f776e657260448201526064016102a7565b600080546001600160a01b038381167fffffffffffffffffffffffff0000000000000000000000000000000000000000831681178455604051919092169283917f8be0079c531659141344cd1fd0a4f28419497f9722a3daafe3b4186f6b6457e09190a35050565b6000610d5c83610d74565b8015610d6d5750610d6d8383610dcb565b9392505050565b6000610d87826301ffc9a760e01b610dcb565b801561092d5750610db8827fffffffff00000000000000000000000000000000000000000000000000000000610dcb565b1592915050565b6000610d6d8284611167565b604080517fffffffff000000000000000000000000000000000000000000000000000000008316602480830191909152825180830390910181526044909101909152602080820180517bffffffffffffffffffffffffffffffffffffffffffffffffffffffff166301ffc9a760e01b178152825160009392849283928392918391908a617530fa92503d91506000519050828015610e6a575060208210155b8015610e765750600081115b979650505050505050565b6001600160a01b03811681146108fe57600080fd5b8035610ea181610e81565b919050565b600060c08284031215610eb857600080fd5b60405160c0810181811067ffffffffffffffff82111715610ee957634e487b7160e01b600052604160045260246000fd5b604052905080610ef883610e96565b8152610f0660208401610e96565b602082015260408301356040820152606083013560608201526080830135608082015260a083013560a08201525092915050565b803560ff81168114610ea157600080fd5b60008060008060006101408688031215610f6457600080fd5b8535610f6f81610e81565b9450610f7e8760208801610ea6565b9350610f8c60e08701610f3a565b949793965093946101008101359450610120013592915050565b60008060008060008060008060006101208a8c031215610fc557600080fd5b8935610fd081610e81565b985060208a0135610fe081610e81565b975060408a0135965060608a0135955060808a0135945060a08a0135935061100a60c08b01610f3a565b925060e08a013591506101008a013590509295985092959850929598565b6000806040838503121561103b57600080fd5b823561104681610e81565b915060208301356bffffffffffffffffffffffff8116811461106757600080fd5b809150509250929050565b600060c0828403121561108457600080fd5b610d6d8383610ea6565b6000602082840312156110a057600080fd5b8135610d6d81610e81565b6000602082840312156110bd57600080fd5b8151610d6d81610e81565b6000602082840312156110da57600080fd5b81518015158114610d6d57600080fd5b634e487b7160e01b600052601160045260246000fd5b808202811582820484141761092d5761092d6110ea565b60008261113457634e487b7160e01b600052601260045260246000fd5b500490565b6000806040838503121561114c57600080fd5b825161115781610e81565b6020939093015192949293505050565b8181038181111561092d5761092d6110ea56fea26469706673582212203f00ac8d6a84ea784315344f7e5564a35ee1c0028f14dcdc0619a70d9f00481764736f6c63430008130033",
  "linkReferences": {},
  "deployedLinkReferences": {}
}