{
  "_format": "hh-sol-artifact-1",
  "contractName": "NFT",
  "sourceName": "contracts/NFT.sol",
  "abi": [
    {
      "inputs": [
        {
          "internalType": "string",
          "name": "_name",
          "type": "string"
        },
        {
          "internalType": "string",
          "name": "_symbol",
          "type": "string"
        }
      ],
      "stateMutability": "nonpayable",
      "type": "constructor"
    },
    {
      "anonymous": false,
      "inputs": [
        {
          "indexed": true,
          "internalType": "address",
          "name": "owner",
          "type": "address"
        },
        {
          "indexed": true,
          "internalType": "address",
          "name": "approved",
          "type": "address"
        },
        {
          "indexed": true,
          "internalType": "uint256",
          "name": "tokenId",
          "type": "uint256"
        }
      ],
      "name": "Approval",
      "type": "event"
    },
    {
      "anonymous": false,
      "inputs": [
        {
          "indexed": true,
          "internalType": "address",
          "name": "owner",
          "type": "address"
        },
        {
          "indexed": true,
          "internalType": "address",
          "name": "operator",
          "type": "address"
        },
        {
          "indexed": false,
          "internalType": "bool",
          "name": "approved",
          "type": "bool"
        }
      ],
      "name": "ApprovalForAll",
      "type": "event"
    },
    {
      "anonymous": false,
      "inputs": [
        {
          "indexed": true,
          "internalType": "address",
          "name": "from",
          "type": "address"
        },
        {
          "indexed": true,
          "internalType": "address",
          "name": "to",
          "type": "address"
        },
        {
          "indexed": true,
          "internalType": "uint256",
          "name": "tokenId",
          "type": "uint256"
        }
      ],
      "name": "Transfer",
      "type": "event"
    },
    {
      "inputs": [
        {
          "internalType": "address",
          "name": "to",
          "type": "address"
        },
        {
          "internalType": "uint256",
          "name": "tokenId",
          "type": "uint256"
        }
      ],
      "name": "approve",
      "outputs": [],
      "stateMutability": "nonpayable",
      "type": "function"
    },
    {
      "inputs": [
        {
          "internalType": "address",
          "name": "owner",
          "type": "address"
        }
      ],
      "name": "balanceOf",
      "outputs": [
        {
          "internalType": "uint256",
          "name": "",
          "type": "uint256"
        }
      ],
      "stateMutability": "view",
      "type": "function"
    },
    {
      "inputs": [],
      "name": "baseTokenURI",
      "outputs": [
        {
          "internalType": "string",
          "name": "",
          "type": "string"
        }
      ],
      "stateMutability": "view",
      "type": "function"
    },
    {
      "inputs": [
        {
          "internalType": "uint256",
          "name": "tokenId",
          "type": "uint256"
        }
      ],
      "name": "getApproved",
      "outputs": [
        {
          "internalType": "address",
          "name": "",
          "type": "address"
        }
      ],
      "stateMutability": "view",
      "type": "function"
    },
    {
      "inputs": [
        {
          "internalType": "address",
          "name": "owner",
          "type": "address"
        },
        {
          "internalType": "address",
          "name": "operator",
          "type": "address"
        }
      ],
      "name": "isApprovedForAll",
      "outputs": [
        {
          "internalType": "bool",
          "name": "",
          "type": "bool"
        }
      ],
      "stateMutability": "view",
      "type": "function"
    },
    {
      "inputs": [
        {
          "internalType": "address",
          "name": "recipient",
          "type": "address"
        }
      ],
      "name": "mintTo",
      "outputs": [
        {
          "internalType": "uint256",
          "name": "",
          "type": "uint256"
        }
      ],
      "stateMutability": "nonpayable",
      "type": "function"
    },
    {
      "inputs": [],
      "name": "name",
      "outputs": [
        {
          "internalType": "string",
          "name": "",
          "type": "string"
        }
      ],
      "stateMutability": "view",
      "type": "function"
    },
    {
      "inputs": [
        {
          "internalType": "uint256",
          "name": "tokenId",
          "type": "uint256"
        }
      ],
      "name": "ownerOf",
      "outputs": [
        {
          "internalType": "address",
          "name": "",
          "type": "address"
        }
      ],
      "stateMutability": "view",
      "type": "function"
    },
    {
      "inputs": [
        {
          "internalType": "address",
          "name": "from",
          "type": "address"
        },
        {
          "internalType": "address",
          "name": "to",
          "type": "address"
        },
        {
          "internalType": "uint256",
          "name": "tokenId",
          "type": "uint256"
        }
      ],
      "name": "safeTransferFrom",
      "outputs": [],
      "stateMutability": "nonpayable",
      "type": "function"
    },
    {
      "inputs": [
        {
          "internalType": "address",
          "name": "from",
          "type": "address"
        },
        {
          "internalType": "address",
          "name": "to",
          "type": "address"
        },
        {
          "internalType": "uint256",
          "name": "tokenId",
          "type": "uint256"
        },
        {
          "internalType": "bytes",
          "name": "data",
          "type": "bytes"
        }
      ],
      "name": "safeTransferFrom",
      "outputs": [],
      "stateMutability": "nonpayable",
      "type": "function"
    },
    {
      "inputs": [
        {
          "internalType": "address",
          "name": "operator",
          "type": "address"
        },
        {
          "internalType": "bool",
          "name": "approved",
          "type": "bool"
        }
      ],
      "name": "setApprovalForAll",
      "outputs": [],
      "stateMutability": "nonpayable",
      "type": "function"
    },
    {
      "inputs": [
        {
          "internalType": "string",
          "name": "_baseTokenURI",
          "type": "string"
        }
      ],
      "name": "setBaseTokenURI",
      "outputs": [],
      "stateMutability": "nonpayable",
      "type": "function"
    },
    {
      "inputs": [
        {
          "internalType": "bytes4",
          "name": "interfaceId",
          "type": "bytes4"
        }
      ],
      "name": "supportsInterface",
      "outputs": [
        {
          "internalType": "bool",
          "name": "",
          "type": "bool"
        }
      ],
      "stateMutability": "view",
      "type": "function"
    },
    {
      "inputs": [],
      "name": "symbol",
      "outputs": [
        {
          "internalType": "string",
          "name": "",
          "type": "string"
        }
      ],
      "stateMutability": "view",
      "type": "function"
    },
    {
      "inputs": [
        {
          "internalType": "uint256",
          "name": "tokenId",
          "type": "uint256"
        }
      ],
      "name": "tokenURI",
      "outputs": [
        {
          "internalType": "string",
          "name": "",
          "type": "string"
        }
      ],
      "stateMutability": "view",
      "type": "function"
    },
    {
      "inputs": [
        {
          "internalType": "address",
          "name": "from",
          "type": "address"
        },
        {
          "internalType": "address",
          "name": "to",
          "type": "address"
        },
        {
          "internalType": "uint256",
          "name": "tokenId",
          "type": "uint256"
        }
      ],
      "name": "transferFrom",
      "outputs": [],
      "stateMutability": "nonpayable",
      "type": "function"
    }
  ],
  "bytecode": "0x60806040523480156200001157600080fd5b5060405162001a5138038062001a51833981016040819052620000349162000142565b818160006200004483826200023b565b5060016200005382826200023b565b5050604080516020810190915260008152600791506200007490826200023b565b50505062000307565b634e487b7160e01b600052604160045260246000fd5b600082601f830112620000a557600080fd5b81516001600160401b0380821115620000c257620000c26200007d565b604051601f8301601f19908116603f01168101908282118183101715620000ed57620000ed6200007d565b816040528381526020925086838588010111156200010a57600080fd5b600091505b838210156200012e57858201830151818301840152908201906200010f565b600093810190920192909252949350505050565b600080604083850312156200015657600080fd5b82516001600160401b03808211156200016e57600080fd5b6200017c8683870162000093565b935060208501519150808211156200019357600080fd5b50620001a28582860162000093565b9150509250929050565b600181811c90821680620001c157607f821691505b602082108103620001e257634e487b7160e01b600052602260045260246000fd5b50919050565b601f8211156200023657600081815260208120601f850160051c81016020861015620002115750805b601f850160051c820191505b8181101562000232578281556001016200021d565b5050505b505050565b81516001600160401b038111156200025757620002576200007d565b6200026f81620002688454620001ac565b84620001e8565b602080601f831160018114620002a757600084156200028e5750858301515b600019600386901b1c1916600185901b17855562000232565b600085815260208120601f198616915b82811015620002d857888601518255948401946001909101908401620002b7565b5085821015620002f75787850151600019600388901b60f8161c191681555b5050505050600190811b01905550565b61173a80620003176000396000f3fe608060405234801561001057600080fd5b50600436106101005760003560e01c806370a0823111610097578063b88d4fde11610066578063b88d4fde1461021d578063c87b56dd14610230578063d547cfb714610243578063e985e9c51461024b57600080fd5b806370a08231146101ce578063755edd17146101ef57806395d89b4114610202578063a22cb4651461020a57600080fd5b806323b872dd116100d357806323b872dd1461018257806330176e131461019557806342842e0e146101a85780636352211e146101bb57600080fd5b806301ffc9a71461010557806306fdde031461012d578063081812fc14610142578063095ea7b31461016d575b600080fd5b61011861011336600461123e565b610287565b60405190151581526020015b60405180910390f35b610135610324565b60405161012491906112ab565b6101556101503660046112be565b6103b6565b6040516001600160a01b039091168152602001610124565b61018061017b3660046112f3565b6103dd565b005b61018061019036600461131d565b610513565b6101806101a33660046113e5565b61058a565b6101806101b636600461131d565b61059a565b6101556101c93660046112be565b6105b5565b6101e16101dc36600461142e565b61061a565b604051908152602001610124565b6101e16101fd36600461142e565b6106b4565b6101356106db565b610180610218366004611449565b6106ea565b61018061022b366004611485565b6106f5565b61013561023e3660046112be565b610773565b6101356107da565b610118610259366004611501565b6001600160a01b03918216600090815260056020908152604080832093909416825291909152205460ff1690565b60006001600160e01b031982167f80ac58cd0000000000000000000000000000000000000000000000000000000014806102ea57506001600160e01b031982167f5b5e139f00000000000000000000000000000000000000000000000000000000145b8061031e57507f01ffc9a7000000000000000000000000000000000000000000000000000000006001600160e01b03198316145b92915050565b60606000805461033390611534565b80601f016020809104026020016040519081016040528092919081815260200182805461035f90611534565b80156103ac5780601f10610381576101008083540402835291602001916103ac565b820191906000526020600020905b81548152906001019060200180831161038f57829003601f168201915b5050505050905090565b60006103c182610868565b506000908152600460205260409020546001600160a01b031690565b60006103e8826105b5565b9050806001600160a01b0316836001600160a01b0316036104765760405162461bcd60e51b815260206004820152602160248201527f4552433732313a20617070726f76616c20746f2063757272656e74206f776e6560448201527f720000000000000000000000000000000000000000000000000000000000000060648201526084015b60405180910390fd5b336001600160a01b038216148061049257506104928133610259565b6105045760405162461bcd60e51b815260206004820152603d60248201527f4552433732313a20617070726f76652063616c6c6572206973206e6f7420746f60448201527f6b656e206f776e6572206f7220617070726f76656420666f7220616c6c000000606482015260840161046d565b61050e83836108cf565b505050565b61051d338261094a565b61057f5760405162461bcd60e51b815260206004820152602d60248201527f4552433732313a2063616c6c6572206973206e6f7420746f6b656e206f776e6560448201526c1c881bdc88185c1c1c9bdd9959609a1b606482015260840161046d565b61050e8383836109c9565b600761059682826115bc565b5050565b61050e838383604051806020016040528060008152506106f5565b6000818152600260205260408120546001600160a01b03168061031e5760405162461bcd60e51b815260206004820152601860248201527f4552433732313a20696e76616c696420746f6b656e2049440000000000000000604482015260640161046d565b60006001600160a01b0382166106985760405162461bcd60e51b815260206004820152602960248201527f4552433732313a2061646472657373207a65726f206973206e6f74206120766160448201527f6c6964206f776e65720000000000000000000000000000000000000000000000606482015260840161046d565b506001600160a01b031660009081526003602052604090205490565b60006106c4600680546001019055565b60006106cf60065490565b905061031e8382610bcf565b60606001805461033390611534565b610596338383610be9565b6106ff338361094a565b6107615760405162461bcd60e51b815260206004820152602d60248201527f4552433732313a2063616c6c6572206973206e6f7420746f6b656e206f776e6560448201526c1c881bdc88185c1c1c9bdd9959609a1b606482015260840161046d565b61076d84848484610cb7565b50505050565b606061077e82610868565b6000610788610d35565b905060008151116107a857604051806020016040528060008152506107d3565b806107b284610d44565b6040516020016107c392919061167c565b6040516020818303038152906040525b9392505050565b600780546107e790611534565b80601f016020809104026020016040519081016040528092919081815260200182805461081390611534565b80156108605780601f1061083557610100808354040283529160200191610860565b820191906000526020600020905b81548152906001019060200180831161084357829003601f168201915b505050505081565b6000818152600260205260409020546001600160a01b03166108cc5760405162461bcd60e51b815260206004820152601860248201527f4552433732313a20696e76616c696420746f6b656e2049440000000000000000604482015260640161046d565b50565b6000818152600460205260409020805473ffffffffffffffffffffffffffffffffffffffff19166001600160a01b0384169081179091558190610911826105b5565b6001600160a01b03167f8c5be1e5ebec7d5bd14f71427d1e84f3dd0314c0f7b2291e5b200ac8c7c3b92560405160405180910390a45050565b600080610956836105b5565b9050806001600160a01b0316846001600160a01b0316148061099d57506001600160a01b0380821660009081526005602090815260408083209388168352929052205460ff165b806109c15750836001600160a01b03166109b6846103b6565b6001600160a01b0316145b949350505050565b826001600160a01b03166109dc826105b5565b6001600160a01b031614610a405760405162461bcd60e51b815260206004820152602560248201527f4552433732313a207472616e736665722066726f6d20696e636f72726563742060448201526437bbb732b960d91b606482015260840161046d565b6001600160a01b038216610abb5760405162461bcd60e51b8152602060048201526024808201527f4552433732313a207472616e7366657220746f20746865207a65726f2061646460448201527f7265737300000000000000000000000000000000000000000000000000000000606482015260840161046d565b826001600160a01b0316610ace826105b5565b6001600160a01b031614610b325760405162461bcd60e51b815260206004820152602560248201527f4552433732313a207472616e736665722066726f6d20696e636f72726563742060448201526437bbb732b960d91b606482015260840161046d565b6000818152600460209081526040808320805473ffffffffffffffffffffffffffffffffffffffff199081169091556001600160a01b0387811680865260038552838620805460001901905590871680865283862080546001019055868652600290945282852080549092168417909155905184937fddf252ad1be2c89b69c2b068fc378daa952ba7f163c4a11628f55a4df523b3ef91a4505050565b610596828260405180602001604052806000815250610de4565b816001600160a01b0316836001600160a01b031603610c4a5760405162461bcd60e51b815260206004820152601960248201527f4552433732313a20617070726f766520746f2063616c6c657200000000000000604482015260640161046d565b6001600160a01b03838116600081815260056020908152604080832094871680845294825291829020805460ff191686151590811790915591519182527f17307eab39ab6107e8899845ad3d59bd9653f200f220920489ca2b5937696c31910160405180910390a3505050565b610cc28484846109c9565b610cce84848484610e62565b61076d5760405162461bcd60e51b815260206004820152603260248201527f4552433732313a207472616e7366657220746f206e6f6e20455243373231526560448201527131b2b4bb32b91034b6b83632b6b2b73a32b960711b606482015260840161046d565b60606007805461033390611534565b60606000610d5183610fae565b600101905060008167ffffffffffffffff811115610d7157610d71611359565b6040519080825280601f01601f191660200182016040528015610d9b576020820181803683370190505b5090508181016020015b600019017f3031323334353637383961626364656600000000000000000000000000000000600a86061a8153600a8504945084610da557509392505050565b610dee8383611090565b610dfb6000848484610e62565b61050e5760405162461bcd60e51b815260206004820152603260248201527f4552433732313a207472616e7366657220746f206e6f6e20455243373231526560448201527131b2b4bb32b91034b6b83632b6b2b73a32b960711b606482015260840161046d565b60006001600160a01b0384163b15610fa357604051630a85bd0160e11b81526001600160a01b0385169063150b7a0290610ea69033908990889088906004016116ab565b6020604051808303816000875af1925050508015610ee1575060408051601f3d908101601f19168201909252610ede918101906116e7565b60015b610f89573d808015610f0f576040519150601f19603f3d011682016040523d82523d6000602084013e610f14565b606091505b508051600003610f815760405162461bcd60e51b815260206004820152603260248201527f4552433732313a207472616e7366657220746f206e6f6e20455243373231526560448201527131b2b4bb32b91034b6b83632b6b2b73a32b960711b606482015260840161046d565b805181602001fd5b6001600160e01b031916630a85bd0160e11b1490506109c1565b506001949350505050565b6000807a184f03e93ff9f4daa797ed6e38ed64bf6a1f0100000000000000008310610ff7577a184f03e93ff9f4daa797ed6e38ed64bf6a1f010000000000000000830492506040015b6d04ee2d6d415b85acef81000000008310611023576d04ee2d6d415b85acef8100000000830492506020015b662386f26fc10000831061104157662386f26fc10000830492506010015b6305f5e1008310611059576305f5e100830492506008015b612710831061106d57612710830492506004015b6064831061107f576064830492506002015b600a831061031e5760010192915050565b6001600160a01b0382166110e65760405162461bcd60e51b815260206004820181905260248201527f4552433732313a206d696e7420746f20746865207a65726f2061646472657373604482015260640161046d565b6000818152600260205260409020546001600160a01b03161561114b5760405162461bcd60e51b815260206004820152601c60248201527f4552433732313a20746f6b656e20616c7265616479206d696e74656400000000604482015260640161046d565b6000818152600260205260409020546001600160a01b0316156111b05760405162461bcd60e51b815260206004820152601c60248201527f4552433732313a20746f6b656e20616c7265616479206d696e74656400000000604482015260640161046d565b6001600160a01b0382166000818152600360209081526040808320805460010190558483526002909152808220805473ffffffffffffffffffffffffffffffffffffffff19168417905551839291907fddf252ad1be2c89b69c2b068fc378daa952ba7f163c4a11628f55a4df523b3ef908290a45050565b6001600160e01b0319811681146108cc57600080fd5b60006020828403121561125057600080fd5b81356107d381611228565b60005b8381101561127657818101518382015260200161125e565b50506000910152565b6000815180845261129781602086016020860161125b565b601f01601f19169290920160200192915050565b6020815260006107d3602083018461127f565b6000602082840312156112d057600080fd5b5035919050565b80356001600160a01b03811681146112ee57600080fd5b919050565b6000806040838503121561130657600080fd5b61130f836112d7565b946020939093013593505050565b60008060006060848603121561133257600080fd5b61133b846112d7565b9250611349602085016112d7565b9150604084013590509250925092565b634e487b7160e01b600052604160045260246000fd5b600067ffffffffffffffff8084111561138a5761138a611359565b604051601f8501601f19908116603f011681019082821181831017156113b2576113b2611359565b816040528093508581528686860111156113cb57600080fd5b858560208301376000602087830101525050509392505050565b6000602082840312156113f757600080fd5b813567ffffffffffffffff81111561140e57600080fd5b8201601f8101841361141f57600080fd5b6109c18482356020840161136f565b60006020828403121561144057600080fd5b6107d3826112d7565b6000806040838503121561145c57600080fd5b611465836112d7565b91506020830135801515811461147a57600080fd5b809150509250929050565b6000806000806080858703121561149b57600080fd5b6114a4856112d7565b93506114b2602086016112d7565b925060408501359150606085013567ffffffffffffffff8111156114d557600080fd5b8501601f810187136114e657600080fd5b6114f58782356020840161136f565b91505092959194509250565b6000806040838503121561151457600080fd5b61151d836112d7565b915061152b602084016112d7565b90509250929050565b600181811c9082168061154857607f821691505b60208210810361156857634e487b7160e01b600052602260045260246000fd5b50919050565b601f82111561050e57600081815260208120601f850160051c810160208610156115955750805b601f850160051c820191505b818110156115b4578281556001016115a1565b505050505050565b815167ffffffffffffffff8111156115d6576115d6611359565b6115ea816115e48454611534565b8461156e565b602080601f83116001811461161f57600084156116075750858301515b600019600386901b1c1916600185901b1785556115b4565b600085815260208120601f198616915b8281101561164e5788860151825594840194600190910190840161162f565b508582101561166c5787850151600019600388901b60f8161c191681555b5050505050600190811b01905550565b6000835161168e81846020880161125b565b8351908301906116a281836020880161125b565b01949350505050565b60006001600160a01b038087168352808616602084015250836040830152608060608301526116dd608083018461127f565b9695505050505050565b6000602082840312156116f957600080fd5b81516107d38161122856fea26469706673582212203ffd244c5e9a98bf32879bda5632da8e049407992e018106ca413760e6b77a4164736f6c63430008130033",
  "linkReferences": {},
  "deployedLinkReferences": {}
}