{
  "_format": "hh-sol-artifact-1",
  "contractName": "NFT",
  "sourceName": "contracts/NFT.sol",
  "abi": [
    {
      "inputs": [
        {
          "internalType": "string",
          "name": "_name",
          "type": "string"
        },
        {
          "internalType": "string",
          "name": "_symbol",
          "type": "string"
        }
      ],
      "stateMutability": "nonpayable",
      "type": "constructor"
    },
    {
      "anonymous": false,
      "inputs": [
        {
          "indexed": true,
          "internalType": "address",
          "name": "owner",
          "type": "address"
        },
        {
          "indexed": true,
          "internalType": "address",
          "name": "approved",
          "type": "address"
        },
        {
          "indexed": true,
          "internalType": "uint256",
          "name": "tokenId",
          "type": "uint256"
        }
      ],
      "name": "Approval",
      "type": "event"
    },
    {
      "anonymous": false,
      "inputs": [
        {
          "indexed": true,
          "internalType": "address",
          "name": "owner",
          "type": "address"
        },
        {
          "indexed": true,
          "internalType": "address",
          "name": "operator",
          "type": "address"
        },
        {
          "indexed": false,
          "internalType": "bool",
          "name": "approved",
          "type": "bool"
        }
      ],
      "name": "ApprovalForAll",
      "type": "event"
    },
    {
      "anonymous": false,
      "inputs": [
        {
          "indexed": true,
          "internalType": "address",
          "name": "from",
          "type": "address"
        },
        {
          "indexed": true,
          "internalType": "address",
          "name": "to",
          "type": "address"
        },
        {
          "indexed": true,
          "internalType": "uint256",
          "name": "tokenId",
          "type": "uint256"
        }
      ],
      "name": "Transfer",
      "type": "event"
    },
    {
      "inputs": [
        {
          "internalType": "address",
          "name": "to",
          "type": "address"
        },
        {
          "internalType": "uint256",
          "name": "tokenId",
          "type": "uint256"
        }
      ],
      "name": "approve",
      "outputs": [],
      "stateMutability": "nonpayable",
      "type": "function"
    },
    {
      "inputs": [
        {
          "internalType": "address",
          "name": "owner",
          "type": "address"
        }
      ],
      "name": "balanceOf",
      "outputs": [
        {
          "internalType": "uint256",
          "name": "",
          "type": "uint256"
        }
      ],
      "stateMutability": "view",
      "type": "function"
    },
    {
      "inputs": [],
      "name": "baseTokenURI",
      "outputs": [
        {
          "internalType": "string",
          "name": "",
          "type": "string"
        }
      ],
      "stateMutability": "view",
      "type": "function"
    },
    {
      "inputs": [
        {
          "internalType": "uint256",
          "name": "tokenId",
          "type": "uint256"
        }
      ],
      "name": "getApproved",
      "outputs": [
        {
          "internalType": "address",
          "name": "",
          "type": "address"
        }
      ],
      "stateMutability": "view",
      "type": "function"
    },
    {
      "inputs": [
        {
          "internalType": "address",
          "name": "owner",
          "type": "address"
        },
        {
          "internalType": "address",
          "name": "operator",
          "type": "address"
        }
      ],
      "name": "isApprovedForAll",
      "outputs": [
        {
          "internalType": "bool",
          "name": "",
          "type": "bool"
        }
      ],
      "stateMutability": "view",
      "type": "function"
    },
    {
      "inputs": [
        {
          "internalType": "address",
          "name": "recipient",
          "type": "address"
        },
        {
          "internalType": "string",
          "name": "hashString",
          "type": "string"
        }
      ],
      "name": "mintTo",
      "outputs": [
        {
          "internalType": "uint256",
          "name": "",
          "type": "uint256"
        }
      ],
      "stateMutability": "nonpayable",
      "type": "function"
    },
    {
      "inputs": [],
      "name": "name",
      "outputs": [
        {
          "internalType": "string",
          "name": "",
          "type": "string"
        }
      ],
      "stateMutability": "view",
      "type": "function"
    },
    {
      "inputs": [
        {
          "internalType": "uint256",
          "name": "tokenId",
          "type": "uint256"
        }
      ],
      "name": "ownerOf",
      "outputs": [
        {
          "internalType": "address",
          "name": "",
          "type": "address"
        }
      ],
      "stateMutability": "view",
      "type": "function"
    },
    {
      "inputs": [
        {
          "internalType": "address",
          "name": "from",
          "type": "address"
        },
        {
          "internalType": "address",
          "name": "to",
          "type": "address"
        },
        {
          "internalType": "uint256",
          "name": "tokenId",
          "type": "uint256"
        }
      ],
      "name": "safeTransferFrom",
      "outputs": [],
      "stateMutability": "nonpayable",
      "type": "function"
    },
    {
      "inputs": [
        {
          "internalType": "address",
          "name": "from",
          "type": "address"
        },
        {
          "internalType": "address",
          "name": "to",
          "type": "address"
        },
        {
          "internalType": "uint256",
          "name": "tokenId",
          "type": "uint256"
        },
        {
          "internalType": "bytes",
          "name": "data",
          "type": "bytes"
        }
      ],
      "name": "safeTransferFrom",
      "outputs": [],
      "stateMutability": "nonpayable",
      "type": "function"
    },
    {
      "inputs": [
        {
          "internalType": "address",
          "name": "operator",
          "type": "address"
        },
        {
          "internalType": "bool",
          "name": "approved",
          "type": "bool"
        }
      ],
      "name": "setApprovalForAll",
      "outputs": [],
      "stateMutability": "nonpayable",
      "type": "function"
    },
    {
      "inputs": [
        {
          "internalType": "string",
          "name": "_baseTokenURI",
          "type": "string"
        }
      ],
      "name": "setBaseTokenURI",
      "outputs": [],
      "stateMutability": "nonpayable",
      "type": "function"
    },
    {
      "inputs": [
        {
          "internalType": "bytes4",
          "name": "interfaceId",
          "type": "bytes4"
        }
      ],
      "name": "supportsInterface",
      "outputs": [
        {
          "internalType": "bool",
          "name": "",
          "type": "bool"
        }
      ],
      "stateMutability": "view",
      "type": "function"
    },
    {
      "inputs": [],
      "name": "symbol",
      "outputs": [
        {
          "internalType": "string",
          "name": "",
          "type": "string"
        }
      ],
      "stateMutability": "view",
      "type": "function"
    },
    {
      "inputs": [
        {
          "internalType": "uint256",
          "name": "tokenId",
          "type": "uint256"
        }
      ],
      "name": "tokenURI",
      "outputs": [
        {
          "internalType": "string",
          "name": "",
          "type": "string"
        }
      ],
      "stateMutability": "view",
      "type": "function"
    },
    {
      "inputs": [
        {
          "internalType": "address",
          "name": "from",
          "type": "address"
        },
        {
          "internalType": "address",
          "name": "to",
          "type": "address"
        },
        {
          "internalType": "uint256",
          "name": "tokenId",
          "type": "uint256"
        }
      ],
      "name": "transferFrom",
      "outputs": [],
      "stateMutability": "nonpayable",
      "type": "function"
    }
  ],
  "bytecode": "0x60806040523480156200001157600080fd5b5060405162001a0238038062001a02833981016040819052620000349162000167565b8181600062000044838262000260565b50600162000053828262000260565b505060408051808201909152601581527f68747470733a2f2f697066732e696f2f697066732f000000000000000000000060208201526007915062000099908262000260565b5050506200032c565b634e487b7160e01b600052604160045260246000fd5b600082601f830112620000ca57600080fd5b81516001600160401b0380821115620000e757620000e7620000a2565b604051601f8301601f19908116603f01168101908282118183101715620001125762000112620000a2565b816040528381526020925086838588010111156200012f57600080fd5b600091505b8382101562000153578582018301518183018401529082019062000134565b600093810190920192909252949350505050565b600080604083850312156200017b57600080fd5b82516001600160401b03808211156200019357600080fd5b620001a186838701620000b8565b93506020850151915080821115620001b857600080fd5b50620001c785828601620000b8565b9150509250929050565b600181811c90821680620001e657607f821691505b6020821081036200020757634e487b7160e01b600052602260045260246000fd5b50919050565b601f8211156200025b57600081815260208120601f850160051c81016020861015620002365750805b601f850160051c820191505b81811015620002575782815560010162000242565b5050505b505050565b81516001600160401b038111156200027c576200027c620000a2565b62000294816200028d8454620001d1565b846200020d565b602080601f831160018114620002cc5760008415620002b35750858301515b600019600386901b1c1916600185901b17855562000257565b600085815260208120601f198616915b82811015620002fd57888601518255948401946001909101908401620002dc565b50858210156200031c5787850151600019600388901b60f8161c191681555b5050505050600190811b01905550565b6116c6806200033c6000396000f3fe608060405234801561001057600080fd5b50600436106100ff5760003560e01c80636352211e11610097578063b88d4fde11610066578063b88d4fde1461021c578063c87b56dd1461022f578063d547cfb714610242578063e985e9c51461024a57600080fd5b80636352211e146101db57806370a08231146101ee57806395d89b4114610201578063a22cb4651461020957600080fd5b8063095ea7b3116100d3578063095ea7b31461018d57806323b872dd146101a257806330176e13146101b557806342842e0e146101c857600080fd5b806275a3171461010457806301ffc9a71461012a57806306fdde031461014d578063081812fc14610162575b600080fd5b610117610112366004611222565b610286565b6040519081526020015b60405180910390f35b61013d610138366004611286565b6102ce565b6040519015158152602001610121565b61015561036b565b60405161012191906112f3565b610175610170366004611306565b6103fd565b6040516001600160a01b039091168152602001610121565b6101a061019b36600461131f565b610424565b005b6101a06101b0366004611349565b61055a565b6101a06101c3366004611385565b6105d1565b6101a06101d6366004611349565b6105e1565b6101756101e9366004611306565b6105fc565b6101176101fc3660046113ba565b610661565b6101556106fb565b6101a06102173660046113d5565b61070a565b6101a061022a366004611411565b610715565b61015561023d366004611306565b610793565b61015561088f565b61013d61025836600461148d565b6001600160a01b03918216600090815260056020908152604080832093909416825291909152205460ff1690565b6000610296600680546001019055565b60006102a160065490565b60008181526008602052604090209091506102bc8482611548565b506102c7848261091d565b9392505050565b60006001600160e01b031982167f80ac58cd00000000000000000000000000000000000000000000000000000000148061033157506001600160e01b031982167f5b5e139f00000000000000000000000000000000000000000000000000000000145b8061036557507f01ffc9a7000000000000000000000000000000000000000000000000000000006001600160e01b03198316145b92915050565b60606000805461037a906114c0565b80601f01602080910402602001604051908101604052809291908181526020018280546103a6906114c0565b80156103f35780601f106103c8576101008083540402835291602001916103f3565b820191906000526020600020905b8154815290600101906020018083116103d657829003601f168201915b5050505050905090565b600061040882610937565b506000908152600460205260409020546001600160a01b031690565b600061042f826105fc565b9050806001600160a01b0316836001600160a01b0316036104bd5760405162461bcd60e51b815260206004820152602160248201527f4552433732313a20617070726f76616c20746f2063757272656e74206f776e6560448201527f720000000000000000000000000000000000000000000000000000000000000060648201526084015b60405180910390fd5b336001600160a01b03821614806104d957506104d98133610258565b61054b5760405162461bcd60e51b815260206004820152603d60248201527f4552433732313a20617070726f76652063616c6c6572206973206e6f7420746f60448201527f6b656e206f776e6572206f7220617070726f76656420666f7220616c6c00000060648201526084016104b4565b610555838361099e565b505050565b6105643382610a19565b6105c65760405162461bcd60e51b815260206004820152602d60248201527f4552433732313a2063616c6c6572206973206e6f7420746f6b656e206f776e6560448201526c1c881bdc88185c1c1c9bdd9959609a1b60648201526084016104b4565b610555838383610a97565b60076105dd8282611548565b5050565b61055583838360405180602001604052806000815250610715565b6000818152600260205260408120546001600160a01b0316806103655760405162461bcd60e51b815260206004820152601860248201527f4552433732313a20696e76616c696420746f6b656e204944000000000000000060448201526064016104b4565b60006001600160a01b0382166106df5760405162461bcd60e51b815260206004820152602960248201527f4552433732313a2061646472657373207a65726f206973206e6f74206120766160448201527f6c6964206f776e6572000000000000000000000000000000000000000000000060648201526084016104b4565b506001600160a01b031660009081526003602052604090205490565b60606001805461037a906114c0565b6105dd338383610c9d565b61071f3383610a19565b6107815760405162461bcd60e51b815260206004820152602d60248201527f4552433732313a2063616c6c6572206973206e6f7420746f6b656e206f776e6560448201526c1c881bdc88185c1c1c9bdd9959609a1b60648201526084016104b4565b61078d84848484610d6b565b50505050565b606061079e82610937565b60006107a8610de9565b6000848152600860205260408120805492935090916107c6906114c0565b80601f01602080910402602001604051908101604052809291908181526020018280546107f2906114c0565b801561083f5780601f106108145761010080835404028352916020019161083f565b820191906000526020600020905b81548152906001019060200180831161082257829003601f168201915b5050505050905060008251116108645760405180602001604052806000815250610887565b8181604051602001610877929190611608565b6040516020818303038152906040525b949350505050565b6007805461089c906114c0565b80601f01602080910402602001604051908101604052809291908181526020018280546108c8906114c0565b80156109155780601f106108ea57610100808354040283529160200191610915565b820191906000526020600020905b8154815290600101906020018083116108f857829003601f168201915b505050505081565b6105dd828260405180602001604052806000815250610df8565b6000818152600260205260409020546001600160a01b031661099b5760405162461bcd60e51b815260206004820152601860248201527f4552433732313a20696e76616c696420746f6b656e204944000000000000000060448201526064016104b4565b50565b6000818152600460205260409020805473ffffffffffffffffffffffffffffffffffffffff19166001600160a01b03841690811790915581906109e0826105fc565b6001600160a01b03167f8c5be1e5ebec7d5bd14f71427d1e84f3dd0314c0f7b2291e5b200ac8c7c3b92560405160405180910390a45050565b600080610a25836105fc565b9050806001600160a01b0316846001600160a01b03161480610a6c57506001600160a01b0380821660009081526005602090815260408083209388168352929052205460ff165b806108875750836001600160a01b0316610a85846103fd565b6001600160a01b031614949350505050565b826001600160a01b0316610aaa826105fc565b6001600160a01b031614610b0e5760405162461bcd60e51b815260206004820152602560248201527f4552433732313a207472616e736665722066726f6d20696e636f72726563742060448201526437bbb732b960d91b60648201526084016104b4565b6001600160a01b038216610b895760405162461bcd60e51b8152602060048201526024808201527f4552433732313a207472616e7366657220746f20746865207a65726f2061646460448201527f726573730000000000000000000000000000000000000000000000000000000060648201526084016104b4565b826001600160a01b0316610b9c826105fc565b6001600160a01b031614610c005760405162461bcd60e51b815260206004820152602560248201527f4552433732313a207472616e736665722066726f6d20696e636f72726563742060448201526437bbb732b960d91b60648201526084016104b4565b6000818152600460209081526040808320805473ffffffffffffffffffffffffffffffffffffffff199081169091556001600160a01b0387811680865260038552838620805460001901905590871680865283862080546001019055868652600290945282852080549092168417909155905184937fddf252ad1be2c89b69c2b068fc378daa952ba7f163c4a11628f55a4df523b3ef91a4505050565b816001600160a01b0316836001600160a01b031603610cfe5760405162461bcd60e51b815260206004820152601960248201527f4552433732313a20617070726f766520746f2063616c6c65720000000000000060448201526064016104b4565b6001600160a01b03838116600081815260056020908152604080832094871680845294825291829020805460ff191686151590811790915591519182527f17307eab39ab6107e8899845ad3d59bd9653f200f220920489ca2b5937696c31910160405180910390a3505050565b610d76848484610a97565b610d8284848484610e76565b61078d5760405162461bcd60e51b815260206004820152603260248201527f4552433732313a207472616e7366657220746f206e6f6e20455243373231526560448201527131b2b4bb32b91034b6b83632b6b2b73a32b960711b60648201526084016104b4565b60606007805461037a906114c0565b610e028383610fc2565b610e0f6000848484610e76565b6105555760405162461bcd60e51b815260206004820152603260248201527f4552433732313a207472616e7366657220746f206e6f6e20455243373231526560448201527131b2b4bb32b91034b6b83632b6b2b73a32b960711b60648201526084016104b4565b60006001600160a01b0384163b15610fb757604051630a85bd0160e11b81526001600160a01b0385169063150b7a0290610eba903390899088908890600401611637565b6020604051808303816000875af1925050508015610ef5575060408051601f3d908101601f19168201909252610ef291810190611673565b60015b610f9d573d808015610f23576040519150601f19603f3d011682016040523d82523d6000602084013e610f28565b606091505b508051600003610f955760405162461bcd60e51b815260206004820152603260248201527f4552433732313a207472616e7366657220746f206e6f6e20455243373231526560448201527131b2b4bb32b91034b6b83632b6b2b73a32b960711b60648201526084016104b4565b805181602001fd5b6001600160e01b031916630a85bd0160e11b149050610887565b506001949350505050565b6001600160a01b0382166110185760405162461bcd60e51b815260206004820181905260248201527f4552433732313a206d696e7420746f20746865207a65726f206164647265737360448201526064016104b4565b6000818152600260205260409020546001600160a01b03161561107d5760405162461bcd60e51b815260206004820152601c60248201527f4552433732313a20746f6b656e20616c7265616479206d696e7465640000000060448201526064016104b4565b6000818152600260205260409020546001600160a01b0316156110e25760405162461bcd60e51b815260206004820152601c60248201527f4552433732313a20746f6b656e20616c7265616479206d696e7465640000000060448201526064016104b4565b6001600160a01b0382166000818152600360209081526040808320805460010190558483526002909152808220805473ffffffffffffffffffffffffffffffffffffffff19168417905551839291907fddf252ad1be2c89b69c2b068fc378daa952ba7f163c4a11628f55a4df523b3ef908290a45050565b80356001600160a01b038116811461117157600080fd5b919050565b634e487b7160e01b600052604160045260246000fd5b600067ffffffffffffffff808411156111a7576111a7611176565b604051601f8501601f19908116603f011681019082821181831017156111cf576111cf611176565b816040528093508581528686860111156111e857600080fd5b858560208301376000602087830101525050509392505050565b600082601f83011261121357600080fd5b6102c78383356020850161118c565b6000806040838503121561123557600080fd5b61123e8361115a565b9150602083013567ffffffffffffffff81111561125a57600080fd5b61126685828601611202565b9150509250929050565b6001600160e01b03198116811461099b57600080fd5b60006020828403121561129857600080fd5b81356102c781611270565b60005b838110156112be5781810151838201526020016112a6565b50506000910152565b600081518084526112df8160208601602086016112a3565b601f01601f19169290920160200192915050565b6020815260006102c760208301846112c7565b60006020828403121561131857600080fd5b5035919050565b6000806040838503121561133257600080fd5b61133b8361115a565b946020939093013593505050565b60008060006060848603121561135e57600080fd5b6113678461115a565b92506113756020850161115a565b9150604084013590509250925092565b60006020828403121561139757600080fd5b813567ffffffffffffffff8111156113ae57600080fd5b61088784828501611202565b6000602082840312156113cc57600080fd5b6102c78261115a565b600080604083850312156113e857600080fd5b6113f18361115a565b91506020830135801515811461140657600080fd5b809150509250929050565b6000806000806080858703121561142757600080fd5b6114308561115a565b935061143e6020860161115a565b925060408501359150606085013567ffffffffffffffff81111561146157600080fd5b8501601f8101871361147257600080fd5b6114818782356020840161118c565b91505092959194509250565b600080604083850312156114a057600080fd5b6114a98361115a565b91506114b76020840161115a565b90509250929050565b600181811c908216806114d457607f821691505b6020821081036114f457634e487b7160e01b600052602260045260246000fd5b50919050565b601f82111561055557600081815260208120601f850160051c810160208610156115215750805b601f850160051c820191505b818110156115405782815560010161152d565b505050505050565b815167ffffffffffffffff81111561156257611562611176565b6115768161157084546114c0565b846114fa565b602080601f8311600181146115ab57600084156115935750858301515b600019600386901b1c1916600185901b178555611540565b600085815260208120601f198616915b828110156115da578886015182559484019460019091019084016115bb565b50858210156115f85787850151600019600388901b60f8161c191681555b5050505050600190811b01905550565b6000835161161a8184602088016112a3565b83519083019061162e8183602088016112a3565b01949350505050565b60006001600160a01b0380871683528086166020840152508360408301526080606083015261166960808301846112c7565b9695505050505050565b60006020828403121561168557600080fd5b81516102c78161127056fea2646970667358221220d8fc5470b9452d427e771386ac242a5386c8a8215e174149d2c1769cc3acf8b964736f6c63430008130033",
  "linkReferences": {},
  "deployedLinkReferences": {}
}