{
  "_format": "hh-sol-artifact-1",
  "contractName": "NFT",
  "sourceName": "contracts/NFT.sol",
  "abi": [
    {
      "inputs": [
        {
          "internalType": "string",
          "name": "_name",
          "type": "string"
        },
        {
          "internalType": "string",
          "name": "_symbol",
          "type": "string"
        },
        {
          "internalType": "uint96",
          "name": "_feeNumerator",
          "type": "uint96"
        }
      ],
      "stateMutability": "nonpayable",
      "type": "constructor"
    },
    {
      "anonymous": false,
      "inputs": [
        {
          "indexed": true,
          "internalType": "address",
          "name": "owner",
          "type": "address"
        },
        {
          "indexed": true,
          "internalType": "address",
          "name": "approved",
          "type": "address"
        },
        {
          "indexed": true,
          "internalType": "uint256",
          "name": "tokenId",
          "type": "uint256"
        }
      ],
      "name": "Approval",
      "type": "event"
    },
    {
      "anonymous": false,
      "inputs": [
        {
          "indexed": true,
          "internalType": "address",
          "name": "owner",
          "type": "address"
        },
        {
          "indexed": true,
          "internalType": "address",
          "name": "operator",
          "type": "address"
        },
        {
          "indexed": false,
          "internalType": "bool",
          "name": "approved",
          "type": "bool"
        }
      ],
      "name": "ApprovalForAll",
      "type": "event"
    },
    {
      "anonymous": false,
      "inputs": [
        {
          "indexed": true,
          "internalType": "address",
          "name": "from",
          "type": "address"
        },
        {
          "indexed": true,
          "internalType": "address",
          "name": "to",
          "type": "address"
        },
        {
          "indexed": true,
          "internalType": "uint256",
          "name": "tokenId",
          "type": "uint256"
        }
      ],
      "name": "Transfer",
      "type": "event"
    },
    {
      "inputs": [
        {
          "internalType": "address",
          "name": "to",
          "type": "address"
        },
        {
          "internalType": "uint256",
          "name": "tokenId",
          "type": "uint256"
        }
      ],
      "name": "approve",
      "outputs": [],
      "stateMutability": "nonpayable",
      "type": "function"
    },
    {
      "inputs": [
        {
          "internalType": "address",
          "name": "owner",
          "type": "address"
        }
      ],
      "name": "balanceOf",
      "outputs": [
        {
          "internalType": "uint256",
          "name": "",
          "type": "uint256"
        }
      ],
      "stateMutability": "view",
      "type": "function"
    },
    {
      "inputs": [],
      "name": "baseTokenURI",
      "outputs": [
        {
          "internalType": "string",
          "name": "",
          "type": "string"
        }
      ],
      "stateMutability": "view",
      "type": "function"
    },
    {
      "inputs": [
        {
          "internalType": "uint256",
          "name": "tokenId",
          "type": "uint256"
        }
      ],
      "name": "getApproved",
      "outputs": [
        {
          "internalType": "address",
          "name": "",
          "type": "address"
        }
      ],
      "stateMutability": "view",
      "type": "function"
    },
    {
      "inputs": [
        {
          "internalType": "address",
          "name": "owner",
          "type": "address"
        },
        {
          "internalType": "address",
          "name": "operator",
          "type": "address"
        }
      ],
      "name": "isApprovedForAll",
      "outputs": [
        {
          "internalType": "bool",
          "name": "",
          "type": "bool"
        }
      ],
      "stateMutability": "view",
      "type": "function"
    },
    {
      "inputs": [
        {
          "internalType": "address",
          "name": "recipient",
          "type": "address"
        },
        {
          "internalType": "string",
          "name": "hashString",
          "type": "string"
        }
      ],
      "name": "mintTo",
      "outputs": [
        {
          "internalType": "uint256",
          "name": "",
          "type": "uint256"
        }
      ],
      "stateMutability": "nonpayable",
      "type": "function"
    },
    {
      "inputs": [],
      "name": "name",
      "outputs": [
        {
          "internalType": "string",
          "name": "",
          "type": "string"
        }
      ],
      "stateMutability": "view",
      "type": "function"
    },
    {
      "inputs": [
        {
          "internalType": "uint256",
          "name": "tokenId",
          "type": "uint256"
        }
      ],
      "name": "ownerOf",
      "outputs": [
        {
          "internalType": "address",
          "name": "",
          "type": "address"
        }
      ],
      "stateMutability": "view",
      "type": "function"
    },
    {
      "inputs": [
        {
          "internalType": "uint256",
          "name": "tokenId",
          "type": "uint256"
        },
        {
          "internalType": "uint256",
          "name": "salePrice",
          "type": "uint256"
        }
      ],
      "name": "royaltyInfo",
      "outputs": [
        {
          "internalType": "address",
          "name": "",
          "type": "address"
        },
        {
          "internalType": "uint256",
          "name": "",
          "type": "uint256"
        }
      ],
      "stateMutability": "view",
      "type": "function"
    },
    {
      "inputs": [
        {
          "internalType": "address",
          "name": "from",
          "type": "address"
        },
        {
          "internalType": "address",
          "name": "to",
          "type": "address"
        },
        {
          "internalType": "uint256",
          "name": "tokenId",
          "type": "uint256"
        }
      ],
      "name": "safeTransferFrom",
      "outputs": [],
      "stateMutability": "nonpayable",
      "type": "function"
    },
    {
      "inputs": [
        {
          "internalType": "address",
          "name": "from",
          "type": "address"
        },
        {
          "internalType": "address",
          "name": "to",
          "type": "address"
        },
        {
          "internalType": "uint256",
          "name": "tokenId",
          "type": "uint256"
        },
        {
          "internalType": "bytes",
          "name": "data",
          "type": "bytes"
        }
      ],
      "name": "safeTransferFrom",
      "outputs": [],
      "stateMutability": "nonpayable",
      "type": "function"
    },
    {
      "inputs": [
        {
          "internalType": "address",
          "name": "operator",
          "type": "address"
        },
        {
          "internalType": "bool",
          "name": "approved",
          "type": "bool"
        }
      ],
      "name": "setApprovalForAll",
      "outputs": [],
      "stateMutability": "nonpayable",
      "type": "function"
    },
    {
      "inputs": [
        {
          "internalType": "string",
          "name": "_baseTokenURI",
          "type": "string"
        }
      ],
      "name": "setBaseTokenURI",
      "outputs": [],
      "stateMutability": "nonpayable",
      "type": "function"
    },
    {
      "inputs": [
        {
          "internalType": "bytes4",
          "name": "interfaceId",
          "type": "bytes4"
        }
      ],
      "name": "supportsInterface",
      "outputs": [
        {
          "internalType": "bool",
          "name": "",
          "type": "bool"
        }
      ],
      "stateMutability": "view",
      "type": "function"
    },
    {
      "inputs": [],
      "name": "symbol",
      "outputs": [
        {
          "internalType": "string",
          "name": "",
          "type": "string"
        }
      ],
      "stateMutability": "view",
      "type": "function"
    },
    {
      "inputs": [
        {
          "internalType": "uint256",
          "name": "tokenId",
          "type": "uint256"
        }
      ],
      "name": "tokenURI",
      "outputs": [
        {
          "internalType": "string",
          "name": "",
          "type": "string"
        }
      ],
      "stateMutability": "view",
      "type": "function"
    },
    {
      "inputs": [
        {
          "internalType": "address",
          "name": "from",
          "type": "address"
        },
        {
          "internalType": "address",
          "name": "to",
          "type": "address"
        },
        {
          "internalType": "uint256",
          "name": "tokenId",
          "type": "uint256"
        }
      ],
      "name": "transferFrom",
      "outputs": [],
      "stateMutability": "nonpayable",
      "type": "function"
    }
  ],
  "bytecode": "0x60806040523480156200001157600080fd5b5060405162001cf838038062001cf8833981016040819052620000349162000279565b8282600262000044838262000395565b50600362000053828262000395565b505060408051808201909152601581527f68747470733a2f2f697066732e696f2f697066732f000000000000000000000060208201526009915062000099908262000395565b50620000a63382620000af565b50505062000461565b6127106001600160601b0382161115620001235760405162461bcd60e51b815260206004820152602a60248201527f455243323938313a20726f79616c7479206665652077696c6c206578636565646044820152692073616c65507269636560b01b60648201526084015b60405180910390fd5b6001600160a01b0382166200017b5760405162461bcd60e51b815260206004820152601960248201527f455243323938313a20696e76616c69642072656365697665720000000000000060448201526064016200011a565b604080518082019091526001600160a01b039092168083526001600160601b039091166020909201829052600160a01b90910217600055565b634e487b7160e01b600052604160045260246000fd5b600082601f830112620001dc57600080fd5b81516001600160401b0380821115620001f957620001f9620001b4565b604051601f8301601f19908116603f01168101908282118183101715620002245762000224620001b4565b816040528381526020925086838588010111156200024157600080fd5b600091505b8382101562000265578582018301518183018401529082019062000246565b600093810190920192909252949350505050565b6000806000606084860312156200028f57600080fd5b83516001600160401b0380821115620002a757600080fd5b620002b587838801620001ca565b94506020860151915080821115620002cc57600080fd5b50620002db86828701620001ca565b604086015190935090506001600160601b0381168114620002fb57600080fd5b809150509250925092565b600181811c908216806200031b57607f821691505b6020821081036200033c57634e487b7160e01b600052602260045260246000fd5b50919050565b601f8211156200039057600081815260208120601f850160051c810160208610156200036b5750805b601f850160051c820191505b818110156200038c5782815560010162000377565b5050505b505050565b81516001600160401b03811115620003b157620003b1620001b4565b620003c981620003c2845462000306565b8462000342565b602080601f831160018114620004015760008415620003e85750858301515b600019600386901b1c1916600185901b1785556200038c565b600085815260208120601f198616915b82811015620004325788860151825594840194600190910190840162000411565b5085821015620004515787850151600019600388901b60f8161c191681555b5050505050600190811b01905550565b61188780620004716000396000f3fe608060405234801561001057600080fd5b506004361061011a5760003560e01c806342842e0e116100b2578063a22cb46511610081578063c87b56dd11610066578063c87b56dd1461027c578063d547cfb71461028f578063e985e9c51461029757600080fd5b8063a22cb46514610256578063b88d4fde1461026957600080fd5b806342842e0e146102155780636352211e1461022857806370a082311461023b57806395d89b411461024e57600080fd5b8063095ea7b3116100ee578063095ea7b3146101a857806323b872dd146101bd5780632a55205a146101d057806330176e131461020257600080fd5b806275a3171461011f57806301ffc9a71461014557806306fdde0314610168578063081812fc1461017d575b600080fd5b61013261012d36600461137a565b6102d3565b6040519081526020015b60405180910390f35b6101586101533660046113de565b61031d565b604051901515815260200161013c565b610170610328565b60405161013c919061144b565b61019061018b36600461145e565b6103ba565b6040516001600160a01b03909116815260200161013c565b6101bb6101b6366004611477565b6103e1565b005b6101bb6101cb3660046114a1565b610517565b6101e36101de3660046114dd565b61058e565b604080516001600160a01b03909316835260208301919091520161013c565b6101bb6102103660046114ff565b610649565b6101bb6102233660046114a1565b610659565b61019061023636600461145e565b610674565b610132610249366004611534565b6106d9565b610170610773565b6101bb61026436600461154f565b610782565b6101bb61027736600461158b565b61078d565b61017061028a36600461145e565b61080b565b610170610907565b6101586102a5366004611607565b6001600160a01b03918216600090815260076020908152604080832093909416825291909152205460ff1690565b60006102e3600880546001019055565b60006102ee60085490565b6000818152600a6020526040902090915061030984826116c2565b506103148482610995565b90505b92915050565b6000610317826109af565b6060600280546103379061163a565b80601f01602080910402602001604051908101604052809291908181526020018280546103639061163a565b80156103b05780601f10610385576101008083540402835291602001916103b0565b820191906000526020600020905b81548152906001019060200180831161039357829003601f168201915b5050505050905090565b60006103c582610a21565b506000908152600660205260409020546001600160a01b031690565b60006103ec82610674565b9050806001600160a01b0316836001600160a01b03160361047a5760405162461bcd60e51b815260206004820152602160248201527f4552433732313a20617070726f76616c20746f2063757272656e74206f776e6560448201527f720000000000000000000000000000000000000000000000000000000000000060648201526084015b60405180910390fd5b336001600160a01b0382161480610496575061049681336102a5565b6105085760405162461bcd60e51b815260206004820152603d60248201527f4552433732313a20617070726f76652063616c6c6572206973206e6f7420746f60448201527f6b656e206f776e6572206f7220617070726f76656420666f7220616c6c0000006064820152608401610471565b6105128383610a88565b505050565b6105213382610b03565b6105835760405162461bcd60e51b815260206004820152602d60248201527f4552433732313a2063616c6c6572206973206e6f7420746f6b656e206f776e6560448201526c1c881bdc88185c1c1c9bdd9959609a1b6064820152608401610471565b610512838383610b81565b60008281526001602090815260408083208151808301909252546001600160a01b038116808352600160a01b9091046bffffffffffffffffffffffff1692820192909252829161060d5750604080518082019091526000546001600160a01b0381168252600160a01b90046bffffffffffffffffffffffff1660208201525b602081015160009061271090610631906bffffffffffffffffffffffff1687611782565b61063b91906117a7565b915196919550909350505050565b600961065582826116c2565b5050565b6105128383836040518060200160405280600081525061078d565b6000818152600460205260408120546001600160a01b0316806103175760405162461bcd60e51b815260206004820152601860248201527f4552433732313a20696e76616c696420746f6b656e20494400000000000000006044820152606401610471565b60006001600160a01b0382166107575760405162461bcd60e51b815260206004820152602960248201527f4552433732313a2061646472657373207a65726f206973206e6f74206120766160448201527f6c6964206f776e657200000000000000000000000000000000000000000000006064820152608401610471565b506001600160a01b031660009081526005602052604090205490565b6060600380546103379061163a565b610655338383610d87565b6107973383610b03565b6107f95760405162461bcd60e51b815260206004820152602d60248201527f4552433732313a2063616c6c6572206973206e6f7420746f6b656e206f776e6560448201526c1c881bdc88185c1c1c9bdd9959609a1b6064820152608401610471565b61080584848484610e55565b50505050565b606061081682610a21565b6000610820610ed3565b6000848152600a602052604081208054929350909161083e9061163a565b80601f016020809104026020016040519081016040528092919081815260200182805461086a9061163a565b80156108b75780601f1061088c576101008083540402835291602001916108b7565b820191906000526020600020905b81548152906001019060200180831161089a57829003601f168201915b5050505050905060008251116108dc57604051806020016040528060008152506108ff565b81816040516020016108ef9291906117c9565b6040516020818303038152906040525b949350505050565b600980546109149061163a565b80601f01602080910402602001604051908101604052809291908181526020018280546109409061163a565b801561098d5780601f106109625761010080835404028352916020019161098d565b820191906000526020600020905b81548152906001019060200180831161097057829003601f168201915b505050505081565b610655828260405180602001604052806000815250610ee2565b60006001600160e01b031982167f80ac58cd000000000000000000000000000000000000000000000000000000001480610a1257506001600160e01b031982167f5b5e139f00000000000000000000000000000000000000000000000000000000145b80610317575061031782610f60565b6000818152600460205260409020546001600160a01b0316610a855760405162461bcd60e51b815260206004820152601860248201527f4552433732313a20696e76616c696420746f6b656e20494400000000000000006044820152606401610471565b50565b6000818152600660205260409020805473ffffffffffffffffffffffffffffffffffffffff19166001600160a01b0384169081179091558190610aca82610674565b6001600160a01b03167f8c5be1e5ebec7d5bd14f71427d1e84f3dd0314c0f7b2291e5b200ac8c7c3b92560405160405180910390a45050565b600080610b0f83610674565b9050806001600160a01b0316846001600160a01b03161480610b5657506001600160a01b0380821660009081526007602090815260408083209388168352929052205460ff165b806108ff5750836001600160a01b0316610b6f846103ba565b6001600160a01b031614949350505050565b826001600160a01b0316610b9482610674565b6001600160a01b031614610bf85760405162461bcd60e51b815260206004820152602560248201527f4552433732313a207472616e736665722066726f6d20696e636f72726563742060448201526437bbb732b960d91b6064820152608401610471565b6001600160a01b038216610c735760405162461bcd60e51b8152602060048201526024808201527f4552433732313a207472616e7366657220746f20746865207a65726f2061646460448201527f72657373000000000000000000000000000000000000000000000000000000006064820152608401610471565b826001600160a01b0316610c8682610674565b6001600160a01b031614610cea5760405162461bcd60e51b815260206004820152602560248201527f4552433732313a207472616e736665722066726f6d20696e636f72726563742060448201526437bbb732b960d91b6064820152608401610471565b6000818152600660209081526040808320805473ffffffffffffffffffffffffffffffffffffffff199081169091556001600160a01b0387811680865260058552838620805460001901905590871680865283862080546001019055868652600490945282852080549092168417909155905184937fddf252ad1be2c89b69c2b068fc378daa952ba7f163c4a11628f55a4df523b3ef91a4505050565b816001600160a01b0316836001600160a01b031603610de85760405162461bcd60e51b815260206004820152601960248201527f4552433732313a20617070726f766520746f2063616c6c6572000000000000006044820152606401610471565b6001600160a01b03838116600081815260076020908152604080832094871680845294825291829020805460ff191686151590811790915591519182527f17307eab39ab6107e8899845ad3d59bd9653f200f220920489ca2b5937696c31910160405180910390a3505050565b610e60848484610b81565b610e6c84848484610fc7565b6108055760405162461bcd60e51b815260206004820152603260248201527f4552433732313a207472616e7366657220746f206e6f6e20455243373231526560448201527131b2b4bb32b91034b6b83632b6b2b73a32b960711b6064820152608401610471565b6060600980546103379061163a565b610eec8383611113565b610ef96000848484610fc7565b6105125760405162461bcd60e51b815260206004820152603260248201527f4552433732313a207472616e7366657220746f206e6f6e20455243373231526560448201527131b2b4bb32b91034b6b83632b6b2b73a32b960711b6064820152608401610471565b60006001600160e01b031982167f2a55205a00000000000000000000000000000000000000000000000000000000148061031757507f01ffc9a7000000000000000000000000000000000000000000000000000000006001600160e01b0319831614610317565b60006001600160a01b0384163b1561110857604051630a85bd0160e11b81526001600160a01b0385169063150b7a029061100b9033908990889088906004016117f8565b6020604051808303816000875af1925050508015611046575060408051601f3d908101601f1916820190925261104391810190611834565b60015b6110ee573d808015611074576040519150601f19603f3d011682016040523d82523d6000602084013e611079565b606091505b5080516000036110e65760405162461bcd60e51b815260206004820152603260248201527f4552433732313a207472616e7366657220746f206e6f6e20455243373231526560448201527131b2b4bb32b91034b6b83632b6b2b73a32b960711b6064820152608401610471565b805181602001fd5b6001600160e01b031916630a85bd0160e11b1490506108ff565b506001949350505050565b6001600160a01b0382166111695760405162461bcd60e51b815260206004820181905260248201527f4552433732313a206d696e7420746f20746865207a65726f20616464726573736044820152606401610471565b6000818152600460205260409020546001600160a01b0316156111ce5760405162461bcd60e51b815260206004820152601c60248201527f4552433732313a20746f6b656e20616c7265616479206d696e746564000000006044820152606401610471565b6000818152600460205260409020546001600160a01b0316156112335760405162461bcd60e51b815260206004820152601c60248201527f4552433732313a20746f6b656e20616c7265616479206d696e746564000000006044820152606401610471565b6001600160a01b0382166000818152600560209081526040808320805460010190558483526004909152808220805473ffffffffffffffffffffffffffffffffffffffff19168417905551839291907fddf252ad1be2c89b69c2b068fc378daa952ba7f163c4a11628f55a4df523b3ef908290a45050565b80356001600160a01b03811681146112c257600080fd5b919050565b634e487b7160e01b600052604160045260246000fd5b600067ffffffffffffffff808411156112f8576112f86112c7565b604051601f8501601f19908116603f01168101908282118183101715611320576113206112c7565b8160405280935085815286868601111561133957600080fd5b858560208301376000602087830101525050509392505050565b600082601f83011261136457600080fd5b611373838335602085016112dd565b9392505050565b6000806040838503121561138d57600080fd5b611396836112ab565b9150602083013567ffffffffffffffff8111156113b257600080fd5b6113be85828601611353565b9150509250929050565b6001600160e01b031981168114610a8557600080fd5b6000602082840312156113f057600080fd5b8135610314816113c8565b60005b838110156114165781810151838201526020016113fe565b50506000910152565b600081518084526114378160208601602086016113fb565b601f01601f19169290920160200192915050565b602081526000611373602083018461141f565b60006020828403121561147057600080fd5b5035919050565b6000806040838503121561148a57600080fd5b611493836112ab565b946020939093013593505050565b6000806000606084860312156114b657600080fd5b6114bf846112ab565b92506114cd602085016112ab565b9150604084013590509250925092565b600080604083850312156114f057600080fd5b50508035926020909101359150565b60006020828403121561151157600080fd5b813567ffffffffffffffff81111561152857600080fd5b6108ff84828501611353565b60006020828403121561154657600080fd5b611373826112ab565b6000806040838503121561156257600080fd5b61156b836112ab565b91506020830135801515811461158057600080fd5b809150509250929050565b600080600080608085870312156115a157600080fd5b6115aa856112ab565b93506115b8602086016112ab565b925060408501359150606085013567ffffffffffffffff8111156115db57600080fd5b8501601f810187136115ec57600080fd5b6115fb878235602084016112dd565b91505092959194509250565b6000806040838503121561161a57600080fd5b611623836112ab565b9150611631602084016112ab565b90509250929050565b600181811c9082168061164e57607f821691505b60208210810361166e57634e487b7160e01b600052602260045260246000fd5b50919050565b601f82111561051257600081815260208120601f850160051c8101602086101561169b5750805b601f850160051c820191505b818110156116ba578281556001016116a7565b505050505050565b815167ffffffffffffffff8111156116dc576116dc6112c7565b6116f0816116ea845461163a565b84611674565b602080601f831160018114611725576000841561170d5750858301515b600019600386901b1c1916600185901b1785556116ba565b600085815260208120601f198616915b8281101561175457888601518255948401946001909101908401611735565b50858210156117725787850151600019600388901b60f8161c191681555b5050505050600190811b01905550565b808202811582820484141761031757634e487b7160e01b600052601160045260246000fd5b6000826117c457634e487b7160e01b600052601260045260246000fd5b500490565b600083516117db8184602088016113fb565b8351908301906117ef8183602088016113fb565b01949350505050565b60006001600160a01b0380871683528086166020840152508360408301526080606083015261182a608083018461141f565b9695505050505050565b60006020828403121561184657600080fd5b8151610314816113c856fea2646970667358221220541397028f71555d4eb1d2a2dbb409894a0a878e942592267b8384bf61bbad6a64736f6c63430008130033",
  "linkReferences": {},
  "deployedLinkReferences": {}
}